:020000040000fa
:080000000001040000000000f3
:020000040000fa
:100008009401000094010000940100009401000094
:100018009401000094010000940100009401000084
:100028009401000094010000940100009401000074
:100038009401000094010000940100009401000064
:100048009401000094010000940100004a0500009a
:100058009401000094010000940100009401000044
:100068009401000094010000940100009401000034
:100078009401000094010000940100009401000024
:100088002a0500009401000094010000940100007a
:100098009401000094010000940100009401000004
:1000a80094010000940100009401000094010000f4
:1000b80094010000940100009401000094010000e4
:1000c80094010000940100009401000094010000d4
:1000d80094010000940100009401000094010000c4
:1000e80094010000940100009401000094010000b4
:0800f8009401000094010000d6
:020000040000fa
:100108009401000094010000940100009401000093
:100118009401000094010000940100009401000083
:100128009401000094010000940100009401000073
:100138009401000094010000940100009401000063
:100148009401000094010000940100004a05000099
:100158009401000094010000940100009401000043
:100168009401000094010000940100009401000033
:100178009401000094010000940100009401000023
:100188002a05000094010000940100009401000079
:100198009401000094010000940100009401000003
:1001a80094010000940100009401000094010000f3
:1001b80094010000940100009401000094010000e3
:1001c80094010000940100009401000094010000d3
:1001d80094010000940100009401000094010000c3
:1001e80094010000940100009401000094010000b3
:0801f8009401000094010000d5
:020000040000fa
:10020000ef8220000eff20000e0188000000000099
:1002100000012000200288000c00070040c92000d7
:100220000100200011000700000020000000e00095
:10023000020032000000020000000000ce070200b1
:10024000000000000040da000000fe004440a90069
:10025000a01a20000000e00003003200000020008f
:10026000a00188004440a800000006009101880019
:10027000800078000000eb0015003700e2804000ad
:1002800032a0b4009101ba00e280400032a0b40074
:100290009102ba00e280400032a0b4000002eb00fc
:1002a000472bde00f507b200602ce10004003a00a5
:1002b0000059eb008301e900fdff3e000400370018
:1002c0006128e100010032000082eb000400070019
:1002d0001101ba000200e000e8ff3a000000060049
:1002e0003159ba008301e9000c0032002159ba00eb
:1002f0008301e900080032000400e00003003a0036
:10030000e280400032a0b400f5ff370011d9ba00f6
:100310008301e900faff3a008100e800e180400033
:1003200032a0b400000006000040da000000fe0029
:1003300014002000360037006011b8004f0037006d
:10034000889fbe008a9fbe008c1f7800a000070017
:10035000a700330003866c006450e10024003200e3
:100360006420e100270032006150e10022003200e9
:100370006120e100210032008b854200eb07b100d3
:100380000134b800003ab8000804420089844a00e9
:10039000013ab8000030b8008880400009014a00e6
:1003a0000400330000004000818048000201490041
:1003b0008b05e900c909dd008301700001003200ee
:1003c00013002000c814de004814dd004709de00d9
:1003d0001200b200c808de00088470005600070052
:1003e00001f0a1000cf0a70001f0a0008900370087
:1003f0006120e1008b0032000801be000200be0057
:10040000f7ff37006150e100fcff3a00850037003c
:10041000889fbe008a9fbe00841f78006c00070082
:100420004f00780011003300f0ff2f00838f6c0025
:1004300006003b00040565000a00a700080037001d
:1004400009f0a6001000200008003700820f5400b9
:10045000838f5c00030039001000200001003e0083
:100460000000200009f0a7000000ea004f05be00d0
:100470004f04be000000e00000000600889fbe00a0
:100480008a9fbe0000827000040271000482710025
:10049000260032000004be000200be006011b80059
:1004a0006b092000950220000182cf000a0039006c
:1004b0000541b1000082cf00070039000541b100bd
:1004c0000982cf00040039000541b1000882cf0045
:1004d000010039000541b10005425200120032000e
:1004e0000a003b0082817100610164008100d1003b
:1004f0000080d3008984d3000884d3008b05e800f2
:100500000442e800f7ff3a000700370008044400ff
:1005100089844c0000004800818048008b05e90078
:100520000442e900f9ff3a00030007004f05be004e
:100530004f04be00000006008100200061805500cd
:100540000b003d000b00200061fe2f000100e100c8
:100550001d00340082817100610164008904d100b2
:100560000884d3000000e800faff3a007100200080
:1005700061006400030070000200600009003200a6
:1005800061044400e0844c000988a50005003200a5
:100590008b05e8006808e10002003a008904d100f8
:1005a0000884d300f20f20000258e10005003d004e
:1005b000c75ddd00f907b20089807500080078008a
:1005c000000006000bf827008b00780000000500f3
:1005d0000004be00160007000003be000405be00b4
:1005e0000200be0012000700844f750000000600e4
:1005f0000200be006450e100050036006420e10006
:10060000020036000968a30001003a000800be009d
:100610000160a0004f0678004f05be004f04be00e9
:1006200000000600f0ff2f00f1ff2700f9ff370060
:10063000c70ade00f107b200f50fb2000800320071
:10064000e1cf4200020032000170a000240005004a
:10065000810f70000100320004080500440005000d
:10066000810f700002003a00140005008502e900c5
:100670000000400081c04800fcff3b000170a0006a
:1006800024000500b042780031c2520002003a0056
:10069000e0cf5200fbff3a000400fb000000060020
:020000040000fa
:1006a0005a3d0000004400003d000000503d0000a5
:1006b000004c00003d000000507200006f6d000013
:1006c000656e000061200000736d0000657200001f
:1006d000612000002d200000737400006f70000086
:1006e0000d0a0000005000006f6b000072650000f2
:1006f0006e750000742000007369000073740000c0
:10070000656d00002e0d00000a0000000d0a0000bb
:100710005445000053540000204600004f54000090
:100720004f4f0000545000004f5200004e4900004f
:100730004b4100000d0a0000005a0000203d00005f
:10074000207a0000616400006e6a0000692c0000dd
:1007500020440000203d000020640000657300007c
:100760006e6900002c200000502000003d20000099
:1007700070720000656400006e6a0000692c000061
:10078000204c0000203d0000206c00006576000039
:10079000690d00000a000000566900007365000042
:1007a0002073000076650000746c0000612000007a
:1007b0007472000065620000612000006461000046
:1007c00020640000616a0000652000006d61000087
:1007d0006e6a0000752000004144000043200000c4
:1007e00076720000656400006e6f00007374000094
:1007f0002e0d00000a0d00000a0000004b6f0000e3
:100800006d6100006e640000613a0000206e00001f
:100810006170000072650000640d00000a000000b5
:10082000535400004f500000206a00006520000073
:10083000616b00007469000076690000726100005d
:100840006e2000002d200000706f00007472000008
:1008500065620000616e0000206a000065200000f3
:100860007265000073650000742000007a6100006a
:10087000206e00006f7600006f2000006b72000099
:1008800065740000616e00006a6500002e0d0000b6
:100890000a0000004b6f00006d6100006e640000f4
:1008a000613a0000206e0000617a0000616400007f
:1008b0000d0a0000004b00006f6d0000616e00002b
:1008c000646100003a2000006c650000766f000053
:1008d0000d0a0000004b00006f6d0000616e00000b
:1008e000646100003a20000064650000736e00003f
:1008f0006f0d00000a000000460000005354000085
:100900004f500000004b00006f6d0000616e000052
:10091000646100003a200000737400006f700000f2
:100920000d0a000000440000616c00006a650000d0
:10093000206b00006f6d0000616e000064650000b8
:10094000204600002c200000422c0000204c00001b
:100950002069000020520000207300007520000074
:10096000626c00006f6b000069720000616e000035
:1009700065200000646f00002072000065730000b5
:10098000657400002d6100002e0d00000a000000bb
:100990005072000065700000726500006b6100001d
:1009a000206e00006170000072650000642000008d
:1009b0002d200000737400006f7000000d0a00000d
:1009c000005000007265000070720000656b00004e
:1009d000612000006e6100007a6100006420000068
:1009e0002d200000737400006f7000000d0a0000dd
:0409f0000000000003
:020000040000fa
:1009f4000000fa0004042000a41088000d42a8009e
:100a040075108000c4ff2f000482620074108800f7
:100a14000de2a8000f42a8000080fa0000000600c2
:100a24000000fa0004042000f41088008f00a800dd
:100a3400c5108000c4ff2f0004826200c410880027
:100a440017e2a8001942a8000080fa00000006007e
:100a5400801f7800841f78003400f8000000200014
:100a6400a00188000000fa008700a900e4108000bb
:100a7400044278000440780000e8b7000080fa00df
:100a84003400f9004f0278004f007800004006005f
:100a9400841f78003400f80004002000a4018800ba
:100aa4000000fa00041480008440880014148000bc
:100ab4009440880024148000a440880034148000ea
:100ac400b440880084408000444088009440800002
:100ad40054408800a440800064408800b4408000f2
:100ae400744088008560a9000080fa003400f90091
:100af4004f027800004006000200fa00000f780060
:100b040000000000c5108000041020000482620070
:100b1400e00f5200fbff3200b41080006602620056
:100b2400e60f520003003a001e027800d410880039
:100b340003003700f40f20001e026200d410880066
:100b44000080fa00000006000200fa00000f78009e
:100b5400060037001e027800144278000402fb00ed
:100b64001e0fe80004007800e3ff07001e0278006f
:100b740014427800e04f5200f6ff3a000080fa0079
:100b8400000006000400fa00100798009e0290007e
:100b9400843e2000110009008482d80000027800fd
:100ba400044f78009e4278000582fb000403b000e5
:100bb40004007800d0ff07001e4078008082fb000c
:100bc40084c12f0004aab900040278009e02900098
:100bd40004824200140798009e02900044062000fc
:100be400110009008482d80000027800044f7800c4
:100bf4009e4278000582fb000403b00004007800e4
:100c0400bdff07001e4078008082fb00c4f92f005e
:100c140004aab900040278009e02900004824200f3
:100c2400140798009e029000a400200011000900ff
:100c34008482d80000027800044f78009e42780035
:100c44000582fb000403b00004007800aaff07003b
:100c54001e4078008082fb0064ff2f0004aab900c4
:100c6400040278009e029000048242001407980057
:100c74001e0290000403b000040078009eff0700e9
:100c84000080fa00000006000000fa000035280089
:100c9400adff07004440800004007800b9ff07005e
:100ca4000002200094ff070030352800a6ff07004b
:100cb4005440800004007800b2ff070000022000c6
:100cc4008dff0700603528009fff07006440800007
:100cd40004007800abff07000002200086ff070035
:100ce4009035280098ff07007440800004007800c5
:100cf400a4ff0700d00020007fff07000080fa0057
:100d0400000006000000fa00d202a900d222a900c5
:100d1400319c2000d0f82d00d00207000002eb0027
:100d2400140c88000002eb00040c88008461a90004
:100d3400240c80000400a1000410a0000420a000e2
:100d4400240c88000002eb00440c88000002eb0035
:100d5400340c88008a61a900540c80000400a100ae
:100d64000410a0000420a000540c88000080fa00a5
:100d7400000006000400fa00000f78001107980034
:100d84001e027800040c88001e029000340c8800b7
:100d94000080fa00000006000000fa00d602a90054
:100da400d622a900e202a900e222a900e242a90097
:100db400e262a9000080fa00000006000000fa00c8
:100dc400e202a800e222a900e242a900e262a8002d
:100dd4000080fa00000006000000fa00e202a90008
:100de400e222a800e242a800e262a9000080fa0020
:100df400000006000200fa00000f78001441800091
:100e0400e10f520003003a001e027800e20f520084
:100e14000600320014418000e20f52000e003a0036
:100e24001e027800e10f52000b003a000002eb00b2
:100e340014418800d8ff07008000eb000000eb009d
:100e4400ccff0700c03528003fff0700006c2c00d2
:100e5400d1022000980207001e0278001441880085
:100e64000080fa00000006000200fa00d702a90080
:100e740040012000010020008f020700d702a800d3
:100e840040062000010020008b020700d702a900c1
:100e940000000000051780000404200004826200a2
:100ea400e00f5200fbff32000002eb000408880050
:100eb4000000000005178000040420000482620082
:100ec400e00f5200fbff3a0004088000040f780092
:100ed4001e027800050020000400be0015fd070076
:100ee4000002be00a29d2c0003c623000400be0025
:100ef40012fd07000002be000400be000080fa00dc
:100f0400000006000200fa00cb22a90040012000e4
:100f14000100200068020700cb22a8004006200040
:100f24000100200064020700cb22a9000000000099
:100f34004416800064026200e00f5200fcff32009d
:100f44000002eb0004088800000000004416800042
:100f540064026200e00f5200fcff3a0004088000c3
:100f6400040f78001e027800050020000400be0073
:100f7400f0fc07000002be00a29d2c0003c6230063
:100f84000400be00edfc07000002be000400be0029
:100f94000080fa00000006000a00fa00881f7800aa
:100fa40030079800410798000002eb0024408800b5
:100fb40003003700244080000402e8002440880035
:100fc40025408000f4702200848f5200f9ff36001f
:100fd400c602a800c622a800c702a800c742a800eb
:100fe4000002eb0014408800030037001440800026
:100ff4000402e8001440880015408000f4a52e0087
:10100400848f5200f9ff3600a842a800a922a80044
:10101400c162a900c562a900cda2a900cdc2a800e1
:10102400dea2a900de82a800d202a900d222a90071
:10103400de02a900de22a900de42a900de62a900c8
:10104400d302a900d702a900dec2a800c722a900c2
:10105400cb22a900c642a8004fff070064fe070088
:101064006ffe07002202070026ff07008000eb0046
:101074000000eb003fff07008f010700a1e2a8007a
:1010840094028000ff3ffc0010028000f041b20097
:101094000074a000100288009402880000008800f8
:1010a4000002eb00244088000d0037000002eb0032
:1010b4003440880003003700344080000402e80014
:1010c4003440880035408000743e2000848f5200f4
:1010d400f9ff3600244080000402e8002440880020
:1010e4002540800074bb2000848f5200efff36003f
:1010f4003037280094fe07006038280092fe07006d
:10110400d039280090fe0700c03c28008efe07005e
:10111400ddfe0700dcfe070045408000f4312000be
:10112400848f5200030036000042eb000440780034
:101134002ae8b70065408000f4312000848f520013
:10114400030036000042eb00044078002be8b700af
:1011540055408000f4312000848f52000300360093
:101164000042eb00044078002ce8b7007540800092
:10117400f4312000848f5200030036000042eb005b
:10118400044078002de8b70045408000f431200089
:10119400848f520011003e00a48220001442780083
:1011a400e04f52000d003a0014c0b3000440780030
:1011b4002ae8b70034418000e00f520005003a00ed
:1011c400100020000bff0700e03f28005efe070030
:1011d40002003700004128005bfe070065408000e4
:1011e400f4312000848f520011003e00b4822000ac
:1011f40014427800e04f52000d003a0014c0b300ce
:10120400044078002be8b70034418000e00f52001e
:1012140005003a0020002000f6fe0700a044280044
:1012240049fe0700020037000041280046fe07007f
:1012340055408000f4312000848f520020003e008d
:10124400c482200014427800e04f52001c003a008f
:1012540014c0b300044078002ce8b7003441800087
:10126400e00f520014003a0014418000e10f5200d4
:101274000300320014418000e20f520010003a00d3
:101284001441800024418800340020001441880067
:10129400540020004441880044418000e00f520083
:1012a40002003a001400200044418800b0452800a0
:1012b40025fe0700020037000041280022fe070037
:1012c40075408000f4312000848f520020003e00dd
:1012d400d482200014427800e04f52001c003a00ef
:1012e40014c0b300044078002de8b70034418000f6
:1012f400e00f520014003a0014418000e10f520044
:101304000300320014418000e20f520010003a0042
:1013140014418000244188004400200014418800c6
:10132400540020004441880044418000e00f5200f2
:1013340002003a001400200044418800b04628000e
:1013440001fe07000200370000412800fefd0700ef
:101354007410800061026200e00f52003b00320012
:1013640094108000044f78001e427800ed4f520024
:10137400110032001e427800ea4f52000e00320083
:1013840004418000e40f520008003c000541800045
:101394001e427800a681200006834200044b780098
:1013a4000502e80004418800280037000002eb0031
:1013b400044188002500370005418000a4812000f5
:1013c400848242000042eb00844a7800c14728002e
:1013d400a0812000aafc070000027800e00f520060
:1013e4000a003a0034418000e00f520005003a0040
:1013f400100020007ffe0700e03f2800d2fd070018
:101404000200370000412800cffd0700e147280013
:10141400a08120009afc070000027800e00f52002f
:1014240008003a000002eb00144188001400200078
:101434003441880030482800c3fd070030492800a3
:10144400c1fd07000002eb00044188001441800044
:10145400e10f52000900320014418000e30f5200f2
:101464000300320014418000e40f520019003a00d6
:1014740024418000e10f520016003a007afe070072
:101484000002be00140798002507980018c0b30096
:1014940002002000031a24001e009000ae009000f9
:1014a400a2fb070000027800e00f520001003400a4
:1014b4000044eb00e04f5400060032000002eb0051
:1014c400144188000002eb0044418800804c28004d
:1014d4009dfd070014418000e20f52000900320014
:1014e40014418000e30f52000300320014418000d5
:1014f400e40f520019003a0024418000e20f520028
:1015040016003a007ffe07000002be001407980090
:101514002507980018c0b30002002000031a240015
:101524001e009000ae00900080fb070000027800cf
:10153400e00f5200010034000044eb00e04f54007f
:10154400060032000002eb00144188000002eb00a8
:1015540044418800104e28007bfd070014418000a0
:10156400050020004600200007002000860f5200de
:10157400878f5a004c003e000460010004003700cd
:10158400090037000e003700130037002c00370025
:10159400c562a90000fe07008000eb000000eb001c
:1015a400f4fd070040003700c562a80003fe0700f1
:1015b400a18c2000c08f2000eefd07003a00370008
:1015c400c562a80004fe0700a18c2000c08f200083
:1015d400e8fd070034003700c562a80024418000fc
:1015e400e10f520005003a00f4fd0700419c200081
:1015f4000000eb00dffd07000700370024418000f6
:10160400e20f520004003a00f3fd0700419c200061
:101614000000eb00d7fd070044418000e00f5200ba
:1016240004003200444180000402e900444188007f
:101634001d00370024418000144188001a0037003f
:10164400c562a80024418000e10f520005003a0061
:10165400dafd07008000eb00409c2000c5fd070078
:101664000700370024418000e20f520004003a00d2
:10167400d9fd07008000eb00409c2000bdfd070061
:1016840044418000e00f52000400320044418000d5
:101694000402e9004441880003003700244180002b
:1016a4001441880000000000007c2200910020000a
:1016b4008100070097fe37000000fa00a1a2a900ec
:1016c400041580000480a1000490a1000415880082
:1016d400041580000450a0000460a0000470a00061
:1016e40004158800a022a8001415800004d0a000ce
:1016f40004e0a00004f0a00014158800a342a80090
:10170400141580000420a0000430a0000440a100af
:101714000450a10014158800a222a900a202a90065
:101724002515800004f0210004827200241588002d
:10173400a4e2a8002515800004fc2f0004826200a6
:10174400f401b30024158800a782a900a682a90089
:10175400341580000400a1000410a1000420a1009d
:101764000430a10034158800341580000480a100e1
:101774000490a10004a0a10004b0a10034158800c5
:101784000082eb0044158800a802a900a822a90041
:10179400a902a900a942a9003450200054158800c8
:1017a400a042a800c404800004c0a00004d0a1008a
:1017b40004e0a000c40488008560a9008d60a8002e
:1017c4000080fa00000006000000fa008cc0a900a6
:1017d40011e1a90084c0a9000080fa0000000600fd
:1017e4000200fa00000f780084c0a9001e027800ed
:1017f4000442780067426200674262006742620006
:101804000482fb00670262004822dd00b604800007
:10181400f58f2f008502630004827200b4048800ef
:101824009e027800688262004322de00044278004f
:10183400614262000482fb00610262004622dd0014
:1018440066048000f5fb2f008502630004827200a9
:10185400640488000080fa00000006000400fa0016
:10186400000f7800110798000002eb00340888008c
:101874001e029000640888001e0278008408880014
:101884001061a9000080fa00000006000000fa00c0
:1018940034088000040078000080fa00000006008c
:1018a4000200fa00000f78001e0278003408880055
:0818b4000080fa0000000600ac
:020000040000fa
:1018bc00f03fb1000180b10006003500ee030900d5
:1018cc0000000000403fb1000180b100fbff3d0073
:1018dc001000b000203fb00002003500008009006d
:0818ec000000000000000600ee
:020000040000fa
:1018f4000000fa000002eb00040888000082eb00fc
:10190400140888000421a900240880000440a000d1
:101914000450a1002408880005e1a8000080fa0012
:0419240000000600b9
:020000040000fa
:10192800000800002000000000000000200800005f
:101938000e0000000200000000000000000000008f
:10194800000000000000000000000000000000008f
:020000040000fa
:0200000401f009
:04000000e5bf000058
:020000040000fa
:0200000401f009
:04000400ff7f00007a
:00000001FF
