:020000040000fa
:080000000001040000000000f3
:020000040000fa
:100008009401000094010000940100009401000094
:100018009401000094010000940100009401000084
:100028009401000094010000940100009401000074
:100038009401000094010000940100009401000064
:10004800940100008a03000094010000940100005c
:100058009401000094010000940100009401000044
:100068009401000094010000940100009401000034
:100078009401000094010000940100009401000024
:10008800aa030000940100009401000094010000fc
:100098009401000094010000940100009401000004
:1000a80094010000940100009401000094010000f4
:1000b80094010000940100009401000094010000e4
:1000c80094010000940100009401000094010000d4
:1000d80094010000940100009401000094010000c4
:1000e80094010000940100009401000094010000b4
:0800f8009401000094010000d6
:020000040000fa
:100108009401000094010000940100009401000093
:100118009401000094010000940100009401000083
:100128009401000094010000940100009401000073
:100138009401000094010000940100009401000063
:10014800940100008a03000094010000940100005b
:100158009401000094010000940100009401000043
:100168009401000094010000940100009401000033
:100178009401000094010000940100009401000023
:10018800aa030000940100009401000094010000fb
:100198009401000094010000940100009401000003
:1001a80094010000940100009401000094010000f3
:1001b80094010000940100009401000094010000e3
:1001c80094010000940100009401000094010000d3
:1001d80094010000940100009401000094010000c3
:1001e80094010000940100009401000094010000b3
:0801f8009401000094010000d5
:020000040000fa
:100200004f8120000eff20000e018800000000003a
:1002100000012000200288000c000700408d200013
:100220000100200011000700000020000000e00095
:10023000020032000000020000000000da060200a6
:10024000000000000040da000000fe004440a90069
:10025000000120000000e000030032000000200048
:10026000a00188004440a800000006009101880019
:10027000800078000000eb0015003700e2804000ad
:1002800032a0b4009101ba00e280400032a0b40074
:100290009102ba00e280400032a0b4000002eb00fc
:1002a000472bde00f507b200602ce10004003a00a5
:1002b0000059eb008301e900fdff3e000400370018
:1002c0006128e100010032000082eb000400070019
:1002d0001101ba000200e000e8ff3a000000060049
:1002e0003159ba008301e9000c0032002159ba00eb
:1002f0008301e900080032000400e00003003a0036
:10030000e280400032a0b400f5ff370011d9ba00f6
:100310008301e900faff3a008100e800e180400033
:1003200032a0b400000006000040da000000fe0029
:100330000001be00210007000470a70003f0a10027
:100340006509b100160032000d0035006828e10093
:1003500006003500f0ff2f00f1ff27000300e0004a
:1003600013003b00010028000000050000004000d1
:10037000818048008502e900fcff3a000800370050
:10038000f88f420002003c008000eb0000000500f6
:100390008100d1000080d3008502e800fcff3a0014
:1003a0000300e00002003b0060001000e080180045
:1003b000000006006011b80049003700c70ade00df
:1003c000f107b200f50fb20008003200e1cf4200a1
:1003d000020032000170a00024000500810f7000af
:1003e000010032000408050044000500810f700080
:1003f00002003a00140005008502e90000004000f8
:1004000081c04800fcff3b000170a00024000500f3
:10041000889fbe008a9fbe008c1f78008500070061
:100420008c00330003866c006450e100240032002d
:100430006420e100270032006150e1002200320018
:100440006120e100210032008b854200eb07b10002
:100450000134b800003ab8000804420089844a0018
:10046000013ab8000030b8008880400009014a0015
:100470000400330000004000818048000201490070
:100480008b05e900c909dd0083017000010032001d
:1004900013002000c814de004814dd004709de0008
:1004a0001200b200c808de00088470003b0007009c
:1004b00001f0a1000cf0a70001f0a0006e003700d1
:1004c0006120e100700032000801be000200be00a1
:1004d000f7ff37006150e100fcff3a006a00370087
:1004e000889fbe008a9fbe000082700004027100d7
:1004f00004827100260032000004be000200be002b
:100500006011b8006b092000950220000182cf0025
:100510000a0039000541b1000082cf000700390010
:100520000541b1000982cf00040039000541b10046
:100530000882cf00010039000541b1000542520098
:10054000120032000a003b008281710061016400e8
:100550008100d1000080d3008984d3000884d300b7
:100560008b05e8000442e800f7ff3a000700370077
:100570000804440089844c00000048008180480041
:100580008b05e9000442e900f9ff3a000300070087
:100590004f05be004f04be00000006008100200091
:1005a000618055000b003d000b00200061fe2f0014
:1005b0000100e1001d0034008281710061016400ce
:1005c0008904d1000884d3000000e800faff3a0053
:1005d00071002000610064000300700002006000f0
:1005e0000900320061044400e0844c000988a50041
:1005f000050032008b05e8006808e10002003a00bf
:100600008904d1000884d300f20f20000258e100d1
:1006100005003d00c75ddd00f907b2008980750067
:1006200008007800000006000bf827008b00780017
:10063000000005000004be0060ff07000003be00cc
:100640000405be000200be005cff0700844f750079
:10065000000006000200be006450e1000500360004
:100660006420e100020036000968a30001003a009e
:100670000800be000160a0004f0678004f05be00d4
:100680004f04be0000000600f0ff2f00f1ff27001e
:04069000f9ff370037
:020000040000fa
:1006940050720000656400006e6a0000693a000050
:1006a400004c000065760000693a0000000000007c
:020000040000fa
:1006b4000000fa0004042000a41088000d42a800e1
:1006c40075108000c4ff2f0004826200741088003b
:1006d4000de2a8000f42a8000080fa000000060006
:1006e4000000fa0004042000f41088008f00a80021
:1006f400c5108000c4ff2f0004826200c41088006b
:1007040017e2a8001942a8000080fa0000000600c1
:10071400801f7800841f78003400f8000000200057
:10072400a00188000000fa008520a9009410800030
:10073400044278000440780000e8b7000080fa0022
:100744003400f9004f0278004f00780000400600a2
:10075400801f7800841f78003400f8000000200017
:10076400a00188000000fa008700a900e4108000be
:10077400044278000440780000e8b7000080fa00e2
:100784003400f9004f0278004f0078000040060062
:100794000200fa00000f78000000000075108000cd
:1007a4000410200004826200e00f5200fbff3200bc
:1007b4006410800066026200e60f520003003a00f3
:1007c4001e0278008410880003003700f40f200014
:1007d4001e026200841088000080fa0000000600f7
:1007e4000200fa00000f780000000000c51080002d
:1007f4000410200004826200e00f5200fbff32006c
:10080400b410800066026200e60f520003003a0052
:100814001e027800d410880003003700f40f200073
:100824001e026200d41088000080fa000000060056
:100834000200fa00000f7800060037001e0278005c
:10084400144278000402fb001e0fe8000400780044
:10085400e3ff07001e02780014427800e04f5200c4
:10086400f6ff3a000080fa00000006000400fa00d7
:10087400100798009e029000843e20001100090099
:100884008482d80000027800044f78009e427800e9
:100894000582fb000403b00004007800bcff0700dd
:1008a4001e4078008082fb0084c12f0004aab90096
:1008b400040278009e02900004824200140798000b
:1008c4009e02900044062000110009008482d80092
:1008d40000027800044f78009e4278000582fb00f5
:1008e4000403b00004007800a9ff07001e4078004c
:1008f4008082fb00c4f92f0004aab9000402780026
:100904009e02900004824200140798009e02900008
:10091400a4002000110009008482d800000278009d
:10092400044f78009e4278000582fb000403b00067
:100934000400780096ff07001e4078008082fb00c8
:1009440064ff2f0004aab900040278009e029000fc
:1009540004824200140798001e0290000403b000b1
:10096400040078008aff07000080fa0000000600f7
:100974000400fa00100798009e029000843e2000b4
:10098400110009008482d80000027800044f780026
:100994009e4278000582fb000403b0000400780046
:1009a4008fff07001e4078008082fb0084c12f0067
:1009b40004aab900040278009e0290000482420056
:1009c400140798009e0290004406200011000900bc
:1009d4008482d80000027800044f78009e42780098
:1009e4000582fb000403b000040078007cff0700cc
:1009f4001e4078008082fb00c4f92f0004aab900cd
:100a0400040278009e0290000482420014079800b9
:100a14009e029000a4002000110009008482d800e6
:100a240000027800044f78009e4278000582fb00a3
:100a34000403b0000400780069ff07001e4078003a
:100a44008082fb0064ff2f0004aab900040278002e
:100a54009e02900004824200140798001e02900037
:100a64000403b000040078005dff07000080fa0072
:100a7400000006000000fa00d202a900d222a90058
:100a8400319c2000d0f82d00940107000002eb00f7
:100a9400140c88000002eb00040c88008461a90097
:100aa400240c80000400a1000410a0000420a00075
:100ab400240c88000002eb00440c88000002eb00c8
:100ac400340c88008a61a900540c80000400a10041
:100ad4000410a0000420a000540c88000080fa0038
:100ae400000006000400fa00000f780011079800c7
:100af4001e027800040c88001e029000340c88004a
:100b04000080fa00000006000000fa008000eb00fc
:100b14000000eb00f3ff0700cb62a900cb82a90021
:100b2400e202a900e222a9000080fa000000060007
:100b34000000fa00a18c2000a08c2000e9ff07002f
:100b4400cb62a800cb82a900e202a900e222a8009d
:100b54000080fa00000006000000fa00c18f2000a7
:100b6400c08f2000dfff0700cb62a900cb82a80062
:100b7400e202a800e222a9000080fa0000000600b8
:100b84000000fa00cb62a800cb82a900e202a80010
:100b9400e222a900017d2000007d2000d1ff070092
:100ba4000080fa00000006000000fa00cb62a800f2
:100bb400cb82a900e202a800e222a900416a200037
:100bc400406a2000c7ff07000080fa00000006000a
:100bd4000000fa00cb62a900cb82a800e202a900bf
:100be400e222a800017d2000007d2000bdff070057
:100bf4000080fa00000006000200fa00ca22a900e0
:100c040040012000010020004b010700ca22a80077
:100c1400400620000100200047010700ca22a90065
:100c2400000000004416800064026200e00f5200dd
:100c3400fcff32000002eb00040888000000000002
:100c44004416800064026200e00f5200fcff3a0088
:100c540004088000040f78001e02780005002000bc
:100c64000400be00d2fd07000002be00a29d2c00bd
:100c740003c623000400be00e4fd07000002be001a
:100c84000400be000080fa00000006000200fa0022
:100c9400cb22a9004001200001002000260107000a
:100ca400cb22a800400620000100200022010700fa
:100cb400cb22a9000000000045168000044020005b
:100cc40004826200e00f5200fbff32000002eb00de
:100cd400040888000000000045168000044020003d
:100ce40004826200e00f5200fbff3a000408800017
:100cf400040f78001e027800050020000400be00e6
:100d0400abfd07000002be00a29d2c0003c6230019
:100d14000400be00bdfd07000002be000400be00ca
:100d24000080fa00000006000400fa00b2ff070089
:100d34000002be000400be007cfd07000002be00ed
:100d4400040f780004712200140798001e02780032
:100d5400e40f520014003400100037001e02780023
:100d64001407980086ff070000122a007100200073
:100d7400f100070064ff07000068290081092000d2
:100d8400ed0007009cff07000002be000400be0047
:100d940066fd07000002be00040f78001e029000ea
:100da4009e0f5200edff3c000080fa000000060098
:100db4000800fa0020079800310798000002eb00b1
:100dc4001440880003003700144080000402e80047
:100dd4001440880015408000f4a52e00848f520032
:100de400f9ff36000082eb0044158800c162a900b7
:100df400c562a900cda2a900cdc2a800dea2a900a7
:100e0400de82a8001bff0700c602a900c622a900b3
:100e1400c642a800c662a900c762a900c782a90089
:100e2400de02a900de22a900d262a900d662a900ce
:100e3400d242a800c722a900cb22a900c742a80019
:100e4400c162a900ca02a800ca62a900d602a80009
:100e5400d622a8002cff070015fe070020fe07007d
:100e6400c3000700c562a90095028000ff3ffc0093
:100e740014028000f441b2000474a000140288003b
:100e840095028800000088000002eb00040f78003f
:100e94007eff07000002be000400be0023fd070021
:100ea4000002be000402780074408800a0342800c8
:100eb4005ffe07007440800004007800acfe070069
:100ec4004dff07000002be000400be0017fd07002e
:100ed4000002be00040278008440880030352800f7
:100ee40053fe07008440800004007800a0fe070041
:100ef4001e027800050020003600200007002000b4
:100f0400860f5200878f5a0046003e00046001009d
:100f1400030037001100370020003700320037008b
:100f24001e0278001407980001ff0700c562a8009c
:100f340074408000ef0f520002003c0014002000b7
:100f44001407980084408000ef0f52003a003400e8
:100f54001400200014079800380037009e0278001f
:100f640015079800e8fe0700c562a90000b021003b
:100f7400710b20007000070084408000ef0f5200c6
:100f84000300340024002000140798002b003700cd
:100f94003400200014079800280037001e0278004f
:100fa40014079800c562a800f5fe07000094280005
:100fb4005109200060000700ddfe070000282c0016
:100fc400710620005c000700cffe070000682900be
:100fd400810920005800070053ff07000002eb00be
:100fe40014079800150037009e0278001507980032
:100ff400c562a800f6fe0700008c2d00710a2000cf
:101004004d000700c0fe0700006829008109200088
:101014004900070044ff07000002eb001407980092
:10102400060037001e027800140798001400200000
:10103400040f780001003700000000009e029000b9
:10104400050f780092ff37000000fa008cc0a90059
:1010540011e1a90084c0a9000080fa000000060084
:101064000200fa00000f780084c0a9001e02780074
:10107400044278006742620067426200674262008d
:101084000482fb00670262004822dd00b60480008f
:10109400f58f2f008502630004827200b404880077
:1010a4009e027800688262004322de0004427800d7
:1010b400614262000482fb00610262004622dd009c
:1010c40066048000f5fb2f00850263000482720031
:1010d400640488000080fa00000006000400fa009e
:1010e400000f7800110798000002eb003408880014
:1010f4001e029000640888001e027800840888009c
:101104001061a9000080fa00000006000000fa0047
:1011140034088000040078000080fa000000060013
:101124000200fa00000f78001e02780034088800dc
:081134000080fa000000060033
:020000040000fa
:10113c00f03fb1000180b10006003500ee0309005c
:10114c0000000000403fb1000180b100fbff3d00fa
:10115c001000b000203fb0000200350000800900f4
:08116c00000000000000060075
:020000040000fa
:101174000000fa000002eb00040888000082eb0083
:10118400140888000421a900240880000440a00059
:101194000450a1002408880005e1a8000080fa009a
:0411a4000000060041
:020000040000fa
:1011a8000008000012000000000000001208000003
:1011b8000200000002000000000000000000000023
:020000040000fa
:0200000401f009
:04000000e5bf000058
:020000040000fa
:0200000401f009
:04000400ff7f00007a
:00000001FF
